:020000040000FA
:1000000000008A110A12E92CF200030E8301F100AC
:100010000A088A01F000040883160313B90083124A
:1000200003130B11D830810083160313B60183121A
:100030000313871F1E2883160313B60A83160313A0
:100040003608B70001303706B600B700370C031882
:100050002C28831203138713031C312883120313E4
:100060008717013083120313EE0083160313390838
:1000700083120313840070088A008301710E8300C9
:10008000F20E720E0900053083120313C7071430F5
:100090004702031CEE29C70183120313BF01831219
:1000A0000313071F562883120313BF0A8312031377
:1000B0003F08C00001304006BF00C000400C0318DC
:1000C0006428831203130713031C69288312031384
:1000D000071783120313BF010330FF0083120313BA
:1000E0003F088A110A1209278A110A128312031380
:1000F000C000C1014008A03EC2000030C300003073
:100100000318410FC3074008A03EC0004108031870
:10011000410F003EC100C00A0319C10A4008831202
:10012000031384008313831203134118831783126C
:100130000313000883120313C4004208831203133D
:100140008400831383120313431883174408831214
:1001500003138000831203133F08C2000319B5285C
:100160003F08013A0319CB28E22801308312031318
:10017000060583120313C200C30040088312031351
:1001800084008313831203134118831743088312D7
:1001900003138000E2280230831203130605831242
:1001A0000313C2000310420CC30040088312031360
:1001B00084008313831203134118831743088312A7
:1001C000031380000330FF00831203133F088A11DA
:1001D0000A1209278A110A1283120313C000C101EF
:1001E0004008A03EC00000300318410F003EC1008F
:1001F00002304007C200C301C30D4108C3074208D3
:100200008312031384008313831203134318831789
:1002100083120313000883120313C4000430440242
:100220000318E7290130831203138A002030831258
:1002300003134407031C1F29831203138A0A820035
:1002400024295F298829C3298312031340088312B4
:10025000031384008313831203134118831783123B
:100260000313000883120313C4004408031DE72985
:1002700001304007C400C501C50D4108C507440849
:100280008312031384008313831203134518831707
:1002900083120313000883120313C6004608031DCC
:1002A000E729420883120313840083138312031384
:1002B000431883170130831203138000E7290130AC
:1002C000831203134007C400C501C50D4108C507CB
:1002D0004408831203138400831383120313451805
:1002E000831783120313000883120313C600460802
:1002F000031DE7294208831203138400831383122A
:100300000313431883170230831203138000E72975
:100310008312031340088312031384008313831290
:100320000313411883178312031300088312031366
:10033000C400013A031DE72901304007C400C5018C
:10034000C50D4108C50744088312031384008313B5
:1003500083120313451883178312031300088312B3
:100360000313C600013A031DE72942088312031351
:1003700084008313831203134318831703308312FB
:1003800003138000E72983120313C00A0319C10A6B
:10039000400883120313840083138312031341184C
:1003A000831783120313000883120313C400013A56
:1003B000031DE72942088312031384008313831269
:1003C0000313431883170030831203138000831232
:1003D0000313BF0A02303F02031C6C28080083127B
:1003E0000313BB000330FF003B088A110A120927E0
:1003F0008A110A1283120313BC00BD013C08A03EFF
:10040000BB000030BE00003003183D0FBE070230B5
:10041000BB070318BE0A3B0883120313840083132F
:10042000831203133E1883178312031300088312E9
:100430000313BC00080083120313B6007F08B70043
:100440008316031307138312031307138312031373
:100450003608B8000319312A3608013A03193E2A32
:100460004A2A83160313060883120313B8003810B0
:10047000013038048316031386004A2A83160313B7
:10048000060883120313B800B8100230380483162C
:10049000031386000330FF008312031336088A110A
:1004A0000A1209278A110A1283120313B800B9012C
:1004B0003808A03EB8000030B60000300318390FED
:1004C000B60702303807B900BA01BA0D3608BA07C4
:1004D00039088312031384008313831203133A1819
:1004E0008317370883120313800004308312031329
:1004F00037020318D42A0230831203138A0089308A
:10050000831203133707031C882A831203138A0AF2
:1005100082008D2AB32AB32A8D2A83120313380846
:100520008312031384008313831203133618831773
:100530000130831203138000013083120313380744
:10054000B700B901B90D3608B9073708831203138C
:100550008400831383120313391883170130831225
:1005600003138000D42A8312031338088312031361
:100570008400831383120313361883170030831209
:100580000313800083120313B80A0319B60A38084C
:100590008312031384008313831203133618831703
:1005A0000030831203138000080083120313AF008E
:1005B0007F08B0000030FF00003051230030FF0002
:1005C000013051230030FF00023051238312031306
:1005D0003008543EB00000300318013EB10030082E
:1005E00083120313840083138312031331188317B8
:1005F00083120313000888000130FF0083120313E5
:100600002F0851230800053083120313B507053066
:100610003502031C202BB5018316031338083B2336
:10062000FF00831603133808D522831603133808F6
:10063000023A031D1D2BB801202B83160313B80AA1
:10064000080083120313AC007F08AD002C08323E73
:10065000AC0000300318013EAE002C0883120313D7
:1006600084008313831203132E1883172D0883121B
:1006700003138000080083120313AA00323EAA006D
:1006800000300318013EAB002A08831203138400D4
:100690008313831203132B18831783120313000889
:1006A000080083120313A6007F08A7000330260268
:1006B0000318A32B0330831203138A0068308312BC
:1006C00003132607031C672B831203138A0A820075
:1006D0006B2B7C2B912B83120313060883120313BD
:1006E000A600A613270CA801A80C2808A900260418
:1006F000831203138600A32B8312031306088312AD
:100700000313A6002613270EF039A8000310A80D26
:100710000310A80D2808A9002604831203138600DD
:10072000A32B83120313060883120313A600A61239
:10073000270EF039A8000310A80D2808A7002604EA
:10074000831203138600080083120313A400A5017B
:10075000033024020318E32B0330831203138A00AF
:10076000BA30831203132407031CB92B831203131B
:100770008A0A8200BD2BC82BD72B8030831203132B
:10078000060583120313A400240DA501A50DE32B78
:10079000403083120313060583120313A400240EB2
:1007A0000F39A5000310A50C0310A50CE32B203076
:1007B00083120313060583120313A400240E0F39BA
:1007C000A5000310A50C831203132508080083124B
:1007D0000313A0007F08A1007E08A2008316031364
:1007E00088010A30FF00831203132008D52203304A
:1007F0008312031320020318312C043083120313D5
:100800008A000B30831203132007031C0A2C831267
:1008100003138A0A82000E2C1A2C262C831603132B
:10082000060883120313A3007F30230583160313E6
:100830008600312C83160313060883120313A300CA
:10084000BF302305831603138600312C8316031350
:10085000060883120313A300DF3023058316031356
:100860008600831203132108FF0020088A110A1250
:1008700051238A110A12831203132208FF00200851
:100880008A110A1221238A110A12080005308312E4
:100890000313EB0714306B02031CC92CEB018A1104
:1008A0000A129A268A110A1283120313E9007F089A
:1008B000E8006430FD000030FE006808FF006908B1
:1008C0008A110A1285258A110A1283120313E9007C
:1008D0007F08E800EA00FF0000308A110A12212395
:1008E0008A110A128A110A129A268A110A1283128E
:1008F0000313E9007F08E8006430FD000030FE00CB
:100900006808FF0069088A110A1221268A110A1252
:1009100083120313E9007F08E8000A30FD0000306D
:10092000FE006808FF0069088A110A1285258A11ED
:100930000A1283120313E9007F08E800EA00FF00AF
:1009400001308A110A1221238A110A128A110A120D
:100950009A268A110A1283120313E9007F08E8001D
:100960000A30FD000030FE006808FF0069088A11A7
:100970000A1221268A110A1283120313E9007F0842
:10098000E800EA00FF0002308A110A1221238A11CE
:100990000A1208000030FE000030FF0000308A110B
:1009A0000A12E7238A110A120030FE000030FF000D
:1009B00001308A110A12E7238A110A120030FE0060
:1009C0000030FF0002308A110A12E7238A110A124E
:1009D00008002A30FE000730FF0080308A110A121A
:1009E000B9268A110A1283120313C9007F08C800AE
:1009F0002C30CA000730CB00831203134808CC0008
:100A00004908CD00FF30C807031CC9034C084D043A
:100A10000319812D04304A07CC00CD01CD0D4B08C0
:100A2000CD074C08FE004D08FF0080308A110A12E5
:100A3000B9268A110A1283120313CF007F08CE0051
:100A40004A08FE004B08FF0080308A110A12B926BE
:100A50008A110A1283120313D100CD007F08D0003F
:100A6000CC0002304A07CC00CD01CD0D4B08CD079C
:100A70004C08FE004D08FF0080308A110A12B9268A
:100A80008A110A1283120313CD00D3007F08CC0011
:100A9000D200831203134E08D2004F08D300FF3058
:100AA000CE07031CCF035208530403197A2D5008B4
:100AB000FE005108FF0080308A110A12A6268A1112
:100AC0000A1283120313D2004C088312031384000A
:100AD0008313831203134D188317520883120313D1
:100AE000800083120313D00A0319D10ACC0A031918
:100AF000CD0A492D063083120313CA070318CB0A07
:100B0000FC2C8A110A12DA2E080083120313E0006B
:100B10007F08DF007E08E2007D08E100E301E401D8
:100B20000130E500E60161086204031D9B2DFF30E2
:100B3000FF00FF30D32D8312031361086208E70022
:100B4000E71BA92D0310E10DE20D0310E50DE60DE5
:100B50009B2D83120313650866040319CE2D6208CA
:100B60006002031DB52D61085F02031CC52D8312B1
:100B700003136508E30766080318660FE4076108B6
:100B8000DF026208031C620FE002031083120313EA
:100B9000E20CE10C0310E60CE50CA92D8312031303
:100BA0006308FF00640808000030831203136E041A
:100BB0000319D42DEE018A110A1203238A110A1295
:100BC0008A110A1243208A110A128A110A12642613
:100BD0008A110A128A110A1246248A110A12F12570
:100BE0000800080083160313B500831203130B11CA
:100BF0000830FF008316031335088A110A120927EB
:100C00008A110A1283160313B500350983120313E0
:100C10008100810A8B168B1783160313811208003B
:100C20008316031301158114011481118116831297
:100C30000313EE0183160313871383120313871321
:100C4000080083160313A7007F08A6007E08A900EA
:100C50007D08A8002904031D312EFF30FF00FF305E
:100C6000632E013083160313AA008316031328088A
:100C70002908AB00AB1B412E0310A80DA90DAA0A31
:100C8000352E0030831603132A0403195E2E29081B
:100C90002702031D4D2E28082602031C572E8316FB
:100CA00003132808A6022908031C290FA702031012
:100CB00083160313A90CA80CAA03412E8316031351
:100CC0002608FF0027080800053083160313B40721
:100CD00014303402031C992EB40101308A110A1217
:100CE000EF218A110A1283160313B100013A031D82
:100CF0007E2E83160313B201B301992E00308A11A0
:100D00000A12EF218A110A1283160313B100033A63
:100D1000031D992E83160313B20A0319B30A32086E
:100D2000E83A031D992E3308033A031D992EB201A8
:100D3000B3010800831603133208FF0033080800CC
:100D400083160313B3007F08B2000800003A0319AA
:100D5000AD2E803A0319B42E00347E08840083132C
:100D60007F188317000808007F088A007E08820029
:100D70000800003A0319C12E803A0319CB2EFF0157
:100D800000347E08840083137F1883170008FF0057
:100D9000840A000808008A110A12B426FD00FE0F1A
:100DA000FF03FF0A8A110A12B426FC007D08FF0027
:100DB0007C0808000030FF0000308A110A121B2254
:100DC0008A110A120030FF0001308A110A121B2218
:100DD0008A110A12C830FF0001308A110A12A026B7
:100DE0008A110A128A110A12CA248A110A128A1155
:100DF0000A1210268A110A1205308A110A12F225E7
:100E00008A110A128A110A12D4258A110A12022F93
:100E1000080083160313AC007F08AD00AE01083054
:100E2000AF00831603132C1C172F2D08AE07831653
:100E300003132C08B0000310300CAC0003102D0D70
:100E4000B000AD002F03B000AF003008031D112F1C
:100E50002E080800043400344F3407346E34003454
:100E60000134003450340734B834003401340034D1
:100E700044340734543400340B34003451340734D0
:100E8000BA340034013400343F3406345B344F3418
:100E900066346D347D3407347F346F34003400346D
:040EA00000340034E6
:02400E00323F3F
:00000001FF
